{
  "_format": "hh-sol-artifact-1",
  "contractName": "Voting",
  "sourceName": "contracts/Voting.sol",
  "abi": [
    {
      "inputs": [],
      "stateMutability": "nonpayable",
      "type": "constructor"
    },
    {
      "inputs": [
        {
          "internalType": "string",
          "name": "_name",
          "type": "string"
        }
      ],
      "name": "addCandidate",
      "outputs": [],
      "stateMutability": "nonpayable",
      "type": "function"
    },
    {
      "inputs": [],
      "name": "admin",
      "outputs": [
        {
          "internalType": "address",
          "name": "",
          "type": "address"
        }
      ],
      "stateMutability": "view",
      "type": "function"
    },
    {
      "inputs": [
        {
          "internalType": "uint256",
          "name": "",
          "type": "uint256"
        }
      ],
      "name": "candidates",
      "outputs": [
        {
          "internalType": "uint256",
          "name": "id",
          "type": "uint256"
        },
        {
          "internalType": "string",
          "name": "name",
          "type": "string"
        },
        {
          "internalType": "uint256",
          "name": "voteCount",
          "type": "uint256"
        },
        {
          "internalType": "bool",
          "name": "active",
          "type": "bool"
        }
      ],
      "stateMutability": "view",
      "type": "function"
    },
    {
      "inputs": [],
      "name": "candidatesCount",
      "outputs": [
        {
          "internalType": "uint256",
          "name": "",
          "type": "uint256"
        }
      ],
      "stateMutability": "view",
      "type": "function"
    },
    {
      "inputs": [],
      "name": "electionEndTime",
      "outputs": [
        {
          "internalType": "uint256",
          "name": "",
          "type": "uint256"
        }
      ],
      "stateMutability": "view",
      "type": "function"
    },
    {
      "inputs": [],
      "name": "electionStarted",
      "outputs": [
        {
          "internalType": "bool",
          "name": "",
          "type": "bool"
        }
      ],
      "stateMutability": "view",
      "type": "function"
    },
    {
      "inputs": [
        {
          "internalType": "uint256",
          "name": "_id",
          "type": "uint256"
        }
      ],
      "name": "getCandidate",
      "outputs": [
        {
          "internalType": "string",
          "name": "",
          "type": "string"
        },
        {
          "internalType": "uint256",
          "name": "",
          "type": "uint256"
        },
        {
          "internalType": "bool",
          "name": "",
          "type": "bool"
        }
      ],
      "stateMutability": "view",
      "type": "function"
    },
    {
      "inputs": [],
      "name": "getWinner",
      "outputs": [
        {
          "internalType": "string",
          "name": "",
          "type": "string"
        }
      ],
      "stateMutability": "view",
      "type": "function"
    },
    {
      "inputs": [
        {
          "internalType": "address",
          "name": "_voter",
          "type": "address"
        }
      ],
      "name": "registerVoter",
      "outputs": [],
      "stateMutability": "nonpayable",
      "type": "function"
    },
    {
      "inputs": [
        {
          "internalType": "uint256",
          "name": "_id",
          "type": "uint256"
        }
      ],
      "name": "removeCandidate",
      "outputs": [],
      "stateMutability": "nonpayable",
      "type": "function"
    },
    {
      "inputs": [],
      "name": "startElection",
      "outputs": [],
      "stateMutability": "nonpayable",
      "type": "function"
    },
    {
      "inputs": [
        {
          "internalType": "uint256",
          "name": "_candidateId",
          "type": "uint256"
        }
      ],
      "name": "vote",
      "outputs": [],
      "stateMutability": "nonpayable",
      "type": "function"
    },
    {
      "inputs": [
        {
          "internalType": "address",
          "name": "",
          "type": "address"
        }
      ],
      "name": "voters",
      "outputs": [
        {
          "internalType": "bool",
          "name": "registered",
          "type": "bool"
        },
        {
          "internalType": "bool",
          "name": "voted",
          "type": "bool"
        }
      ],
      "stateMutability": "view",
      "type": "function"
    }
  ],
  "bytecode": "0x608060405234801561001057600080fd5b50336000806101000a81548173ffffffffffffffffffffffffffffffffffffffff021916908373ffffffffffffffffffffffffffffffffffffffff160217905550611ecd806100606000396000f3fe608060405234801561001057600080fd5b50600436106100cf5760003560e01c8063462e91ec1161008c5780639e136e64116100665780639e136e64146101ef578063a3ec138d1461020d578063d5346da11461023e578063f851a4401461025c576100cf565b8063462e91ec146101ab57806362d73eb8146101c75780638e7ea5b2146101d1576100cf565b80630121b93f146100d457806309e9d7e2146100f05780632d35a8a21461010c5780633477ee2e1461012a57806335b8e8201461015d57806338db6dd31461018f575b600080fd5b6100ee60048036038101906100e991906110ce565b61027a565b005b61010a600480360381019061010591906110ce565b61056a565b005b610114610809565b604051610121919061110a565b60405180910390f35b610144600480360381019061013f91906110ce565b61080f565b60405161015494939291906111d0565b60405180910390f35b610177600480360381019061017291906110ce565b6108d4565b6040516101869392919061121c565b60405180910390f35b6101a960048036038101906101a491906112b8565b6109d9565b005b6101c560048036038101906101c0919061141a565b610ac4565b005b6101cf610ce9565b005b6101d9610df8565b6040516101e69190611463565b60405180910390f35b6101f7611009565b604051610204919061110a565b60405180910390f35b610227600480360381019061022291906112b8565b61100f565b604051610235929190611485565b60405180910390f35b61024661104d565b60405161025391906114ae565b60405180910390f35b610264611060565b60405161027191906114d8565b60405180910390f35b600660009054906101000a900460ff166102c9576040517f08c379a00000000000000000000000000000000000000000000000000000000081526004016102c09061153f565b60405180910390fd5b60055442111561030e576040517f08c379a0000000000000000000000000000000000000000000000000000000008152600401610305906115ab565b60405180910390fd5b600160003373ffffffffffffffffffffffffffffffffffffffff1673ffffffffffffffffffffffffffffffffffffffff16815260200190815260200160002060000160009054906101000a900460ff1661039d576040517f08c379a000000000000000000000000000000000000000000000000000000000815260040161039490611617565b60405180910390fd5b600160003373ffffffffffffffffffffffffffffffffffffffff1673ffffffffffffffffffffffffffffffffffffffff16815260200190815260200160002060000160019054906101000a900460ff161561042d576040517f08c379a000000000000000000000000000000000000000000000000000000000815260040161042490611683565b60405180910390fd5b60008111801561043f57506004548111155b61047e576040517f08c379a0000000000000000000000000000000000000000000000000000000008152600401610475906116ef565b60405180910390fd5b6002600082815260200190815260200160002060030160009054906101000a900460ff166104e1576040517f08c379a00000000000000000000000000000000000000000000000000000000081526004016104d89061175b565b60405180910390fd5b60018060003373ffffffffffffffffffffffffffffffffffffffff1673ffffffffffffffffffffffffffffffffffffffff16815260200190815260200160002060000160016101000a81548160ff021916908315150217905550600260008281526020019081526020016000206002016000815480929190610562906117aa565b919050555050565b60008054906101000a900473ffffffffffffffffffffffffffffffffffffffff1673ffffffffffffffffffffffffffffffffffffffff163373ffffffffffffffffffffffffffffffffffffffff16146105f8576040517f08c379a00000000000000000000000000000000000000000000000000000000081526004016105ef9061183e565b60405180910390fd5b600660009054906101000a900460ff1615610648576040517f08c379a000000000000000000000000000000000000000000000000000000000815260040161063f906118d0565b60405180910390fd5b60008111801561065a57506004548111155b610699576040517f08c379a0000000000000000000000000000000000000000000000000000000008152600401610690906116ef565b60405180910390fd5b6002600082815260200190815260200160002060030160009054906101000a900460ff166106fc576040517f08c379a00000000000000000000000000000000000000000000000000000000081526004016106f39061193c565b60405180910390fd5b60006002600083815260200190815260200160002060030160006101000a81548160ff021916908315150217905550600060026000838152602001908152602001600020600101805461074e9061198b565b80601f016020809104026020016040519081016040528092919081815260200182805461077a9061198b565b80156107c75780601f1061079c576101008083540402835291602001916107c7565b820191906000526020600020905b8154815290600101906020018083116107aa57829003601f168201915b5050505050905060006003826040516107e091906119f8565b908152602001604051809103902060006101000a81548160ff0219169083151502179055505050565b60045481565b60026020528060005260406000206000915090508060000154908060010180546108389061198b565b80601f01602080910402602001604051908101604052809291908181526020018280546108649061198b565b80156108b15780601f10610886576101008083540402835291602001916108b1565b820191906000526020600020905b81548152906001019060200180831161089457829003601f168201915b5050505050908060020154908060030160009054906101000a900460ff16905084565b6060600080600060026000868152602001908152602001600020604051806080016040529081600082015481526020016001820180546109139061198b565b80601f016020809104026020016040519081016040528092919081815260200182805461093f9061198b565b801561098c5780601f106109615761010080835404028352916020019161098c565b820191906000526020600020905b81548152906001019060200180831161096f57829003601f168201915b50505050508152602001600282015481526020016003820160009054906101000a900460ff1615151515815250509050806020015181604001518260600151935093509350509193909250565b60008054906101000a900473ffffffffffffffffffffffffffffffffffffffff1673ffffffffffffffffffffffffffffffffffffffff163373ffffffffffffffffffffffffffffffffffffffff1614610a67576040517f08c379a0000000000000000000000000000000000000000000000000000000008152600401610a5e9061183e565b60405180910390fd5b60018060008373ffffffffffffffffffffffffffffffffffffffff1673ffffffffffffffffffffffffffffffffffffffff16815260200190815260200160002060000160006101000a81548160ff02191690831515021790555050565b60008054906101000a900473ffffffffffffffffffffffffffffffffffffffff1673ffffffffffffffffffffffffffffffffffffffff163373ffffffffffffffffffffffffffffffffffffffff1614610b52576040517f08c379a0000000000000000000000000000000000000000000000000000000008152600401610b499061183e565b60405180910390fd5b600660009054906101000a900460ff1615610ba2576040517f08c379a0000000000000000000000000000000000000000000000000000000008152600401610b9990611a81565b60405180910390fd5b600381604051610bb291906119f8565b908152602001604051809103902060009054906101000a900460ff1615610c0e576040517f08c379a0000000000000000000000000000000000000000000000000000000008152600401610c0590611aed565b60405180910390fd5b60046000815480929190610c21906117aa565b9190505550604051806080016040528060045481526020018281526020016000815260200160011515815250600260006004548152602001908152602001600020600082015181600001556020820151816001019081610c819190611cb9565b506040820151816002015560608201518160030160006101000a81548160ff0219169083151502179055509050506001600382604051610cc191906119f8565b908152602001604051809103902060006101000a81548160ff02191690831515021790555050565b60008054906101000a900473ffffffffffffffffffffffffffffffffffffffff1673ffffffffffffffffffffffffffffffffffffffff163373ffffffffffffffffffffffffffffffffffffffff1614610d77576040517f08c379a0000000000000000000000000000000000000000000000000000000008152600401610d6e9061183e565b60405180910390fd5b600660009054906101000a900460ff1615610dc7576040517f08c379a0000000000000000000000000000000000000000000000000000000008152600401610dbe90611dd7565b60405180910390fd5b6001600660006101000a81548160ff02191690831515021790555061a8c042610df09190611df7565b600581905550565b6060600660009054906101000a900460ff16610e49576040517f08c379a0000000000000000000000000000000000000000000000000000000008152600401610e409061153f565b60405180910390fd5b6005544211610e8d576040517f08c379a0000000000000000000000000000000000000000000000000000000008152600401610e8490611e77565b60405180910390fd5b6000806000600190505b6004548111610f1a576002600082815260200190815260200160002060030160009054906101000a900460ff168015610ee55750826002600083815260200190815260200160002060020154115b15610f0757600260008281526020019081526020016000206002015492508091505b8080610f12906117aa565b915050610e97565b5060008103610f62576040518060400160405280600981526020017f4e6f2057696e6e6572000000000000000000000000000000000000000000000081525092505050611006565b600260008281526020019081526020016000206001018054610f839061198b565b80601f0160208091040260200160405190810160405280929190818152602001828054610faf9061198b565b8015610ffc5780601f10610fd157610100808354040283529160200191610ffc565b820191906000526020600020905b815481529060010190602001808311610fdf57829003601f168201915b5050505050925050505b90565b60055481565b60016020528060005260406000206000915090508060000160009054906101000a900460ff16908060000160019054906101000a900460ff16905082565b600660009054906101000a900460ff1681565b60008054906101000a900473ffffffffffffffffffffffffffffffffffffffff1681565b6000604051905090565b600080fd5b600080fd5b6000819050919050565b6110ab81611098565b81146110b657600080fd5b50565b6000813590506110c8816110a2565b92915050565b6000602082840312156110e4576110e361108e565b5b60006110f2848285016110b9565b91505092915050565b61110481611098565b82525050565b600060208201905061111f60008301846110fb565b92915050565b600081519050919050565b600082825260208201905092915050565b60005b8381101561115f578082015181840152602081019050611144565b60008484015250505050565b6000601f19601f8301169050919050565b600061118782611125565b6111918185611130565b93506111a1818560208601611141565b6111aa8161116b565b840191505092915050565b60008115159050919050565b6111ca816111b5565b82525050565b60006080820190506111e560008301876110fb565b81810360208301526111f7818661117c565b905061120660408301856110fb565b61121360608301846111c1565b95945050505050565b60006060820190508181036000830152611236818661117c565b905061124560208301856110fb565b61125260408301846111c1565b949350505050565b600073ffffffffffffffffffffffffffffffffffffffff82169050919050565b60006112858261125a565b9050919050565b6112958161127a565b81146112a057600080fd5b50565b6000813590506112b28161128c565b92915050565b6000602082840312156112ce576112cd61108e565b5b60006112dc848285016112a3565b91505092915050565b600080fd5b600080fd5b7f4e487b7100000000000000000000000000000000000000000000000000000000600052604160045260246000fd5b6113278261116b565b810181811067ffffffffffffffff82111715611346576113456112ef565b5b80604052505050565b6000611359611084565b9050611365828261131e565b919050565b600067ffffffffffffffff821115611385576113846112ef565b5b61138e8261116b565b9050602081019050919050565b82818337600083830152505050565b60006113bd6113b88461136a565b61134f565b9050828152602081018484840111156113d9576113d86112ea565b5b6113e484828561139b565b509392505050565b600082601f830112611401576114006112e5565b5b81356114118482602086016113aa565b91505092915050565b6000602082840312156114305761142f61108e565b5b600082013567ffffffffffffffff81111561144e5761144d611093565b5b61145a848285016113ec565b91505092915050565b6000602082019050818103600083015261147d818461117c565b905092915050565b600060408201905061149a60008301856111c1565b6114a760208301846111c1565b9392505050565b60006020820190506114c360008301846111c1565b92915050565b6114d28161127a565b82525050565b60006020820190506114ed60008301846114c9565b92915050565b7f456c656374696f6e20686173206e6f7420737461727465642079657400000000600082015250565b6000611529601c83611130565b9150611534826114f3565b602082019050919050565b600060208201905081810360008301526115588161151c565b9050919050565b7f456c656374696f6e2068617320656e6465640000000000000000000000000000600082015250565b6000611595601283611130565b91506115a08261155f565b602082019050919050565b600060208201905081810360008301526115c481611588565b9050919050565b7f4e6f742072656769737465726564000000000000000000000000000000000000600082015250565b6000611601600e83611130565b915061160c826115cb565b602082019050919050565b60006020820190508181036000830152611630816115f4565b9050919050565b7f416c726561647920766f74656400000000000000000000000000000000000000600082015250565b600061166d600d83611130565b915061167882611637565b602082019050919050565b6000602082019050818103600083015261169c81611660565b9050919050565b7f496e76616c69642063616e646964617465000000000000000000000000000000600082015250565b60006116d9601183611130565b91506116e4826116a3565b602082019050919050565b60006020820190508181036000830152611708816116cc565b9050919050565b7f43616e646964617465206973206e6f7420616374697665000000000000000000600082015250565b6000611745601783611130565b91506117508261170f565b602082019050919050565b6000602082019050818103600083015261177481611738565b9050919050565b7f4e487b7100000000000000000000000000000000000000000000000000000000600052601160045260246000fd5b60006117b582611098565b91507fffffffffffffffffffffffffffffffffffffffffffffffffffffffffffffffff82036117e7576117e661177b565b5b600182019050919050565b7f4f6e6c792061646d696e00000000000000000000000000000000000000000000600082015250565b6000611828600a83611130565b9150611833826117f2565b602082019050919050565b600060208201905081810360008301526118578161181b565b9050919050565b7f43616e6e6f742072656d6f76652063616e64696461746520616674657220656c60008201527f656374696f6e2073746172746564000000000000000000000000000000000000602082015250565b60006118ba602e83611130565b91506118c58261185e565b604082019050919050565b600060208201905081810360008301526118e9816118ad565b9050919050565b7f43616e64696461746520616c72656164792072656d6f76656400000000000000600082015250565b6000611926601983611130565b9150611931826118f0565b602082019050919050565b6000602082019050818103600083015261195581611919565b9050919050565b7f4e487b7100000000000000000000000000000000000000000000000000000000600052602260045260246000fd5b600060028204905060018216806119a357607f821691505b6020821081036119b6576119b561195c565b5b50919050565b600081905092915050565b60006119d282611125565b6119dc81856119bc565b93506119ec818560208601611141565b80840191505092915050565b6000611a0482846119c7565b915081905092915050565b7f43616e6e6f74206164642063616e64696461746520616674657220656c65637460008201527f696f6e2073746172746564000000000000000000000000000000000000000000602082015250565b6000611a6b602b83611130565b9150611a7682611a0f565b604082019050919050565b60006020820190508181036000830152611a9a81611a5e565b9050919050565b7f43616e64696461746520616c7265616479206578697374730000000000000000600082015250565b6000611ad7601883611130565b9150611ae282611aa1565b602082019050919050565b60006020820190508181036000830152611b0681611aca565b9050919050565b60008190508160005260206000209050919050565b60006020601f8301049050919050565b600082821b905092915050565b600060088302611b6f7fffffffffffffffffffffffffffffffffffffffffffffffffffffffffffffffff82611b32565b611b798683611b32565b95508019841693508086168417925050509392505050565b6000819050919050565b6000611bb6611bb1611bac84611098565b611b91565b611098565b9050919050565b6000819050919050565b611bd083611b9b565b611be4611bdc82611bbd565b848454611b3f565b825550505050565b600090565b611bf9611bec565b611c04818484611bc7565b505050565b5b81811015611c2857611c1d600082611bf1565b600181019050611c0a565b5050565b601f821115611c6d57611c3e81611b0d565b611c4784611b22565b81016020851015611c56578190505b611c6a611c6285611b22565b830182611c09565b50505b505050565b600082821c905092915050565b6000611c9060001984600802611c72565b1980831691505092915050565b6000611ca98383611c7f565b9150826002028217905092915050565b611cc282611125565b67ffffffffffffffff811115611cdb57611cda6112ef565b5b611ce5825461198b565b611cf0828285611c2c565b600060209050601f831160018114611d235760008415611d11578287015190505b611d1b8582611c9d565b865550611d83565b601f198416611d3186611b0d565b60005b82811015611d5957848901518255600182019150602085019450602081019050611d34565b86831015611d765784890151611d72601f891682611c7f565b8355505b6001600288020188555050505b505050505050565b7f456c656374696f6e20616c726561647920737461727465640000000000000000600082015250565b6000611dc1601883611130565b9150611dcc82611d8b565b602082019050919050565b60006020820190508181036000830152611df081611db4565b9050919050565b6000611e0282611098565b9150611e0d83611098565b9250828201905080821115611e2557611e2461177b565b5b92915050565b7f456c656374696f6e206973207374696c6c206f6e676f696e6700000000000000600082015250565b6000611e61601983611130565b9150611e6c82611e2b565b602082019050919050565b60006020820190508181036000830152611e9081611e54565b905091905056fea26469706673582212204ff35d1fa41270bdb42ceb8ca0d2fe81ff7c630fb73b9a7100969c462068125d64736f6c63430008140033",
  "linkReferences": {},
  "deployedLinkReferences": {}
}