{
  "_format": "hh-sol-artifact-1",
  "contractName": "Voting",
  "sourceName": "contracts/Voting.sol",
  "abi": [
    {
      "inputs": [],
      "stateMutability": "nonpayable",
      "type": "constructor"
    },
    {
      "inputs": [
        {
          "internalType": "string",
          "name": "_name",
          "type": "string"
        }
      ],
      "name": "addCandidate",
      "outputs": [],
      "stateMutability": "nonpayable",
      "type": "function"
    },
    {
      "inputs": [],
      "name": "admin",
      "outputs": [
        {
          "internalType": "address",
          "name": "",
          "type": "address"
        }
      ],
      "stateMutability": "view",
      "type": "function"
    },
    {
      "inputs": [
        {
          "internalType": "uint256",
          "name": "",
          "type": "uint256"
        }
      ],
      "name": "candidates",
      "outputs": [
        {
          "internalType": "uint256",
          "name": "id",
          "type": "uint256"
        },
        {
          "internalType": "string",
          "name": "name",
          "type": "string"
        },
        {
          "internalType": "uint256",
          "name": "voteCount",
          "type": "uint256"
        }
      ],
      "stateMutability": "view",
      "type": "function"
    },
    {
      "inputs": [],
      "name": "candidatesCount",
      "outputs": [
        {
          "internalType": "uint256",
          "name": "",
          "type": "uint256"
        }
      ],
      "stateMutability": "view",
      "type": "function"
    },
    {
      "inputs": [
        {
          "internalType": "uint256",
          "name": "_id",
          "type": "uint256"
        }
      ],
      "name": "getCandidate",
      "outputs": [
        {
          "internalType": "string",
          "name": "",
          "type": "string"
        },
        {
          "internalType": "uint256",
          "name": "",
          "type": "uint256"
        }
      ],
      "stateMutability": "view",
      "type": "function"
    },
    {
      "inputs": [],
      "name": "getWinner",
      "outputs": [
        {
          "internalType": "string",
          "name": "",
          "type": "string"
        }
      ],
      "stateMutability": "view",
      "type": "function"
    },
    {
      "inputs": [
        {
          "internalType": "address",
          "name": "_voter",
          "type": "address"
        }
      ],
      "name": "registerVoter",
      "outputs": [],
      "stateMutability": "nonpayable",
      "type": "function"
    },
    {
      "inputs": [
        {
          "internalType": "uint256",
          "name": "_candidateId",
          "type": "uint256"
        }
      ],
      "name": "vote",
      "outputs": [],
      "stateMutability": "nonpayable",
      "type": "function"
    },
    {
      "inputs": [
        {
          "internalType": "address",
          "name": "",
          "type": "address"
        }
      ],
      "name": "voters",
      "outputs": [
        {
          "internalType": "bool",
          "name": "registered",
          "type": "bool"
        },
        {
          "internalType": "bool",
          "name": "voted",
          "type": "bool"
        }
      ],
      "stateMutability": "view",
      "type": "function"
    }
  ],
  "bytecode": "0x608060405234801561001057600080fd5b50336000806101000a81548173ffffffffffffffffffffffffffffffffffffffff021916908373ffffffffffffffffffffffffffffffffffffffff16021790555061123d806100606000396000f3fe608060405234801561001057600080fd5b50600436106100935760003560e01c806338db6dd31161006657806338db6dd314610135578063462e91ec146101515780638e7ea5b21461016d578063a3ec138d1461018b578063f851a440146101bc57610093565b80630121b93f146100985780632d35a8a2146100b45780633477ee2e146100d257806335b8e82014610104575b600080fd5b6100b260048036038101906100ad9190610914565b6101da565b005b6100bc6103d3565b6040516100c99190610950565b60405180910390f35b6100ec60048036038101906100e79190610914565b6103d9565b6040516100fb939291906109fb565b60405180910390f35b61011e60048036038101906101199190610914565b61048b565b60405161012c929190610a39565b60405180910390f35b61014f600480360381019061014a9190610ac7565b61056a565b005b61016b60048036038101906101669190610c29565b610655565b005b61017561075e565b6040516101829190610c72565b60405180910390f35b6101a560048036038101906101a09190610ac7565b610868565b6040516101b3929190610caf565b60405180910390f35b6101c46108a6565b6040516101d19190610ce7565b60405180910390f35b600160003373ffffffffffffffffffffffffffffffffffffffff1673ffffffffffffffffffffffffffffffffffffffff16815260200190815260200160002060000160009054906101000a900460ff16610269576040517f08c379a000000000000000000000000000000000000000000000000000000000815260040161026090610d4e565b60405180910390fd5b600160003373ffffffffffffffffffffffffffffffffffffffff1673ffffffffffffffffffffffffffffffffffffffff16815260200190815260200160002060000160019054906101000a900460ff16156102f9576040517f08c379a00000000000000000000000000000000000000000000000000000000081526004016102f090610dba565b60405180910390fd5b60008111801561030b57506003548111155b61034a576040517f08c379a000000000000000000000000000000000000000000000000000000000815260040161034190610e26565b60405180910390fd5b60018060003373ffffffffffffffffffffffffffffffffffffffff1673ffffffffffffffffffffffffffffffffffffffff16815260200190815260200160002060000160016101000a81548160ff0219169083151502179055506002600082815260200190815260200160002060020160008154809291906103cb90610e75565b919050555050565b60035481565b600260205280600052604060002060009150905080600001549080600101805461040290610eec565b80601f016020809104026020016040519081016040528092919081815260200182805461042e90610eec565b801561047b5780601f106104505761010080835404028352916020019161047b565b820191906000526020600020905b81548152906001019060200180831161045e57829003601f168201915b5050505050908060020154905083565b606060008060026000858152602001908152602001600020604051806060016040529081600082015481526020016001820180546104c890610eec565b80601f01602080910402602001604051908101604052809291908181526020018280546104f490610eec565b80156105415780601f1061051657610100808354040283529160200191610541565b820191906000526020600020905b81548152906001019060200180831161052457829003601f168201915b505050505081526020016002820154815250509050806020015181604001519250925050915091565b60008054906101000a900473ffffffffffffffffffffffffffffffffffffffff1673ffffffffffffffffffffffffffffffffffffffff163373ffffffffffffffffffffffffffffffffffffffff16146105f8576040517f08c379a00000000000000000000000000000000000000000000000000000000081526004016105ef90610f69565b60405180910390fd5b60018060008373ffffffffffffffffffffffffffffffffffffffff1673ffffffffffffffffffffffffffffffffffffffff16815260200190815260200160002060000160006101000a81548160ff02191690831515021790555050565b60008054906101000a900473ffffffffffffffffffffffffffffffffffffffff1673ffffffffffffffffffffffffffffffffffffffff163373ffffffffffffffffffffffffffffffffffffffff16146106e3576040517f08c379a00000000000000000000000000000000000000000000000000000000081526004016106da90610f69565b60405180910390fd5b600360008154809291906106f690610e75565b919050555060405180606001604052806003548152602001828152602001600081525060026000600354815260200190815260200160002060008201518160000155602082015181600101908161074d9190611135565b506040820151816002015590505050565b60606000806000600190505b60035481116107c15782600260008381526020019081526020016000206002015411156107ae57600260008281526020019081526020016000206002015492508091505b80806107b990610e75565b91505061076a565b506002600082815260200190815260200160002060010180546107e390610eec565b80601f016020809104026020016040519081016040528092919081815260200182805461080f90610eec565b801561085c5780601f106108315761010080835404028352916020019161085c565b820191906000526020600020905b81548152906001019060200180831161083f57829003601f168201915b50505050509250505090565b60016020528060005260406000206000915090508060000160009054906101000a900460ff16908060000160019054906101000a900460ff16905082565b60008054906101000a900473ffffffffffffffffffffffffffffffffffffffff1681565b6000604051905090565b600080fd5b600080fd5b6000819050919050565b6108f1816108de565b81146108fc57600080fd5b50565b60008135905061090e816108e8565b92915050565b60006020828403121561092a576109296108d4565b5b6000610938848285016108ff565b91505092915050565b61094a816108de565b82525050565b60006020820190506109656000830184610941565b92915050565b600081519050919050565b600082825260208201905092915050565b60005b838110156109a557808201518184015260208101905061098a565b60008484015250505050565b6000601f19601f8301169050919050565b60006109cd8261096b565b6109d78185610976565b93506109e7818560208601610987565b6109f0816109b1565b840191505092915050565b6000606082019050610a106000830186610941565b8181036020830152610a2281856109c2565b9050610a316040830184610941565b949350505050565b60006040820190508181036000830152610a5381856109c2565b9050610a626020830184610941565b9392505050565b600073ffffffffffffffffffffffffffffffffffffffff82169050919050565b6000610a9482610a69565b9050919050565b610aa481610a89565b8114610aaf57600080fd5b50565b600081359050610ac181610a9b565b92915050565b600060208284031215610add57610adc6108d4565b5b6000610aeb84828501610ab2565b91505092915050565b600080fd5b600080fd5b7f4e487b7100000000000000000000000000000000000000000000000000000000600052604160045260246000fd5b610b36826109b1565b810181811067ffffffffffffffff82111715610b5557610b54610afe565b5b80604052505050565b6000610b686108ca565b9050610b748282610b2d565b919050565b600067ffffffffffffffff821115610b9457610b93610afe565b5b610b9d826109b1565b9050602081019050919050565b82818337600083830152505050565b6000610bcc610bc784610b79565b610b5e565b905082815260208101848484011115610be857610be7610af9565b5b610bf3848285610baa565b509392505050565b600082601f830112610c1057610c0f610af4565b5b8135610c20848260208601610bb9565b91505092915050565b600060208284031215610c3f57610c3e6108d4565b5b600082013567ffffffffffffffff811115610c5d57610c5c6108d9565b5b610c6984828501610bfb565b91505092915050565b60006020820190508181036000830152610c8c81846109c2565b905092915050565b60008115159050919050565b610ca981610c94565b82525050565b6000604082019050610cc46000830185610ca0565b610cd16020830184610ca0565b9392505050565b610ce181610a89565b82525050565b6000602082019050610cfc6000830184610cd8565b92915050565b7f4e6f742072656769737465726564000000000000000000000000000000000000600082015250565b6000610d38600e83610976565b9150610d4382610d02565b602082019050919050565b60006020820190508181036000830152610d6781610d2b565b9050919050565b7f416c726561647920766f74656400000000000000000000000000000000000000600082015250565b6000610da4600d83610976565b9150610daf82610d6e565b602082019050919050565b60006020820190508181036000830152610dd381610d97565b9050919050565b7f496e76616c69642063616e646964617465000000000000000000000000000000600082015250565b6000610e10601183610976565b9150610e1b82610dda565b602082019050919050565b60006020820190508181036000830152610e3f81610e03565b9050919050565b7f4e487b7100000000000000000000000000000000000000000000000000000000600052601160045260246000fd5b6000610e80826108de565b91507fffffffffffffffffffffffffffffffffffffffffffffffffffffffffffffffff8203610eb257610eb1610e46565b5b600182019050919050565b7f4e487b7100000000000000000000000000000000000000000000000000000000600052602260045260246000fd5b60006002820490506001821680610f0457607f821691505b602082108103610f1757610f16610ebd565b5b50919050565b7f4f6e6c792061646d696e00000000000000000000000000000000000000000000600082015250565b6000610f53600a83610976565b9150610f5e82610f1d565b602082019050919050565b60006020820190508181036000830152610f8281610f46565b9050919050565b60008190508160005260206000209050919050565b60006020601f8301049050919050565b600082821b905092915050565b600060088302610feb7fffffffffffffffffffffffffffffffffffffffffffffffffffffffffffffffff82610fae565b610ff58683610fae565b95508019841693508086168417925050509392505050565b6000819050919050565b600061103261102d611028846108de565b61100d565b6108de565b9050919050565b6000819050919050565b61104c83611017565b61106061105882611039565b848454610fbb565b825550505050565b600090565b611075611068565b611080818484611043565b505050565b5b818110156110a45761109960008261106d565b600181019050611086565b5050565b601f8211156110e9576110ba81610f89565b6110c384610f9e565b810160208510156110d2578190505b6110e66110de85610f9e565b830182611085565b50505b505050565b600082821c905092915050565b600061110c600019846008026110ee565b1980831691505092915050565b600061112583836110fb565b9150826002028217905092915050565b61113e8261096b565b67ffffffffffffffff81111561115757611156610afe565b5b6111618254610eec565b61116c8282856110a8565b600060209050601f83116001811461119f576000841561118d578287015190505b6111978582611119565b8655506111ff565b601f1984166111ad86610f89565b60005b828110156111d5578489015182556001820191506020850194506020810190506111b0565b868310156111f257848901516111ee601f8916826110fb565b8355505b6001600288020188555050505b50505050505056fea2646970667358221220d5f493c1ae20711199ff2153473f77a899a7e6acd39bc5a36f605875c0f7518c64736f6c63430008140033",
  "linkReferences": {},
  "deployedLinkReferences": {}
}