{
  "_format": "hh-sol-artifact-1",
  "contractName": "Voting",
  "sourceName": "contracts/Voting.sol",
  "abi": [
    {
      "inputs": [],
      "stateMutability": "nonpayable",
      "type": "constructor"
    },
    {
      "inputs": [
        {
          "internalType": "string",
          "name": "_name",
          "type": "string"
        }
      ],
      "name": "addCandidate",
      "outputs": [],
      "stateMutability": "nonpayable",
      "type": "function"
    },
    {
      "inputs": [],
      "name": "admin",
      "outputs": [
        {
          "internalType": "address",
          "name": "",
          "type": "address"
        }
      ],
      "stateMutability": "view",
      "type": "function"
    },
    {
      "inputs": [
        {
          "internalType": "uint256",
          "name": "",
          "type": "uint256"
        }
      ],
      "name": "candidates",
      "outputs": [
        {
          "internalType": "uint256",
          "name": "id",
          "type": "uint256"
        },
        {
          "internalType": "string",
          "name": "name",
          "type": "string"
        },
        {
          "internalType": "uint256",
          "name": "voteCount",
          "type": "uint256"
        },
        {
          "internalType": "bool",
          "name": "active",
          "type": "bool"
        }
      ],
      "stateMutability": "view",
      "type": "function"
    },
    {
      "inputs": [],
      "name": "candidatesCount",
      "outputs": [
        {
          "internalType": "uint256",
          "name": "",
          "type": "uint256"
        }
      ],
      "stateMutability": "view",
      "type": "function"
    },
    {
      "inputs": [],
      "name": "electionEndTime",
      "outputs": [
        {
          "internalType": "uint256",
          "name": "",
          "type": "uint256"
        }
      ],
      "stateMutability": "view",
      "type": "function"
    },
    {
      "inputs": [],
      "name": "electionStarted",
      "outputs": [
        {
          "internalType": "bool",
          "name": "",
          "type": "bool"
        }
      ],
      "stateMutability": "view",
      "type": "function"
    },
    {
      "inputs": [
        {
          "internalType": "uint256",
          "name": "_id",
          "type": "uint256"
        }
      ],
      "name": "getCandidate",
      "outputs": [
        {
          "internalType": "string",
          "name": "",
          "type": "string"
        },
        {
          "internalType": "uint256",
          "name": "",
          "type": "uint256"
        },
        {
          "internalType": "bool",
          "name": "",
          "type": "bool"
        }
      ],
      "stateMutability": "view",
      "type": "function"
    },
    {
      "inputs": [],
      "name": "getWinner",
      "outputs": [
        {
          "internalType": "string",
          "name": "",
          "type": "string"
        }
      ],
      "stateMutability": "view",
      "type": "function"
    },
    {
      "inputs": [
        {
          "internalType": "address",
          "name": "_voter",
          "type": "address"
        }
      ],
      "name": "registerVoter",
      "outputs": [],
      "stateMutability": "nonpayable",
      "type": "function"
    },
    {
      "inputs": [
        {
          "internalType": "uint256",
          "name": "_id",
          "type": "uint256"
        }
      ],
      "name": "removeCandidate",
      "outputs": [],
      "stateMutability": "nonpayable",
      "type": "function"
    },
    {
      "inputs": [],
      "name": "startElection",
      "outputs": [],
      "stateMutability": "nonpayable",
      "type": "function"
    },
    {
      "inputs": [
        {
          "internalType": "uint256",
          "name": "_candidateId",
          "type": "uint256"
        }
      ],
      "name": "vote",
      "outputs": [],
      "stateMutability": "nonpayable",
      "type": "function"
    },
    {
      "inputs": [
        {
          "internalType": "address",
          "name": "",
          "type": "address"
        }
      ],
      "name": "voters",
      "outputs": [
        {
          "internalType": "bool",
          "name": "registered",
          "type": "bool"
        },
        {
          "internalType": "bool",
          "name": "voted",
          "type": "bool"
        }
      ],
      "stateMutability": "view",
      "type": "function"
    }
  ],
  "bytecode": "0x608060405234801561001057600080fd5b50336000806101000a81548173ffffffffffffffffffffffffffffffffffffffff021916908373ffffffffffffffffffffffffffffffffffffffff160217905550611d09806100606000396000f3fe608060405234801561001057600080fd5b50600436106100cf5760003560e01c8063462e91ec1161008c5780639e136e64116100665780639e136e64146101ef578063a3ec138d1461020d578063d5346da11461023e578063f851a4401461025c576100cf565b8063462e91ec146101ab57806362d73eb8146101c75780638e7ea5b2146101d1576100cf565b80630121b93f146100d457806309e9d7e2146100f05780632d35a8a21461010c5780633477ee2e1461012a57806335b8e8201461015d57806338db6dd31461018f575b600080fd5b6100ee60048036038101906100e9919061102e565b61027a565b005b61010a6004803603810190610105919061102e565b61056a565b005b6101146107b9565b604051610121919061106a565b60405180910390f35b610144600480360381019061013f919061102e565b6107bf565b6040516101549493929190611130565b60405180910390f35b6101776004803603810190610172919061102e565b610884565b6040516101869392919061117c565b60405180910390f35b6101a960048036038101906101a49190611218565b610989565b005b6101c560048036038101906101c0919061137a565b610a74565b005b6101cf610c49565b005b6101d9610d58565b6040516101e691906113c3565b60405180910390f35b6101f7610f69565b604051610204919061106a565b60405180910390f35b61022760048036038101906102229190611218565b610f6f565b6040516102359291906113e5565b60405180910390f35b610246610fad565b604051610253919061140e565b60405180910390f35b610264610fc0565b6040516102719190611438565b60405180910390f35b600660009054906101000a900460ff166102c9576040517f08c379a00000000000000000000000000000000000000000000000000000000081526004016102c09061149f565b60405180910390fd5b60055442111561030e576040517f08c379a00000000000000000000000000000000000000000000000000000000081526004016103059061150b565b60405180910390fd5b600160003373ffffffffffffffffffffffffffffffffffffffff1673ffffffffffffffffffffffffffffffffffffffff16815260200190815260200160002060000160009054906101000a900460ff1661039d576040517f08c379a000000000000000000000000000000000000000000000000000000000815260040161039490611577565b60405180910390fd5b600160003373ffffffffffffffffffffffffffffffffffffffff1673ffffffffffffffffffffffffffffffffffffffff16815260200190815260200160002060000160019054906101000a900460ff161561042d576040517f08c379a0000000000000000000000000000000000000000000000000000000008152600401610424906115e3565b60405180910390fd5b60008111801561043f57506004548111155b61047e576040517f08c379a00000000000000000000000000000000000000000000000000000000081526004016104759061164f565b60405180910390fd5b6002600082815260200190815260200160002060030160009054906101000a900460ff166104e1576040517f08c379a00000000000000000000000000000000000000000000000000000000081526004016104d8906116bb565b60405180910390fd5b60018060003373ffffffffffffffffffffffffffffffffffffffff1673ffffffffffffffffffffffffffffffffffffffff16815260200190815260200160002060000160016101000a81548160ff0219169083151502179055506002600082815260200190815260200160002060020160008154809291906105629061170a565b919050555050565b60008054906101000a900473ffffffffffffffffffffffffffffffffffffffff1673ffffffffffffffffffffffffffffffffffffffff163373ffffffffffffffffffffffffffffffffffffffff16146105f8576040517f08c379a00000000000000000000000000000000000000000000000000000000081526004016105ef9061179e565b60405180910390fd5b60008111801561060a57506004548111155b610649576040517f08c379a00000000000000000000000000000000000000000000000000000000081526004016106409061164f565b60405180910390fd5b6002600082815260200190815260200160002060030160009054906101000a900460ff166106ac576040517f08c379a00000000000000000000000000000000000000000000000000000000081526004016106a39061180a565b60405180910390fd5b60006002600083815260200190815260200160002060030160006101000a81548160ff02191690831515021790555060006002600083815260200190815260200160002060010180546106fe90611859565b80601f016020809104026020016040519081016040528092919081815260200182805461072a90611859565b80156107775780601f1061074c57610100808354040283529160200191610777565b820191906000526020600020905b81548152906001019060200180831161075a57829003601f168201915b50505050509050600060038260405161079091906118c6565b908152602001604051809103902060006101000a81548160ff0219169083151502179055505050565b60045481565b60026020528060005260406000206000915090508060000154908060010180546107e890611859565b80601f016020809104026020016040519081016040528092919081815260200182805461081490611859565b80156108615780601f1061083657610100808354040283529160200191610861565b820191906000526020600020905b81548152906001019060200180831161084457829003601f168201915b5050505050908060020154908060030160009054906101000a900460ff16905084565b6060600080600060026000868152602001908152602001600020604051806080016040529081600082015481526020016001820180546108c390611859565b80601f01602080910402602001604051908101604052809291908181526020018280546108ef90611859565b801561093c5780601f106109115761010080835404028352916020019161093c565b820191906000526020600020905b81548152906001019060200180831161091f57829003601f168201915b50505050508152602001600282015481526020016003820160009054906101000a900460ff1615151515815250509050806020015181604001518260600151935093509350509193909250565b60008054906101000a900473ffffffffffffffffffffffffffffffffffffffff1673ffffffffffffffffffffffffffffffffffffffff163373ffffffffffffffffffffffffffffffffffffffff1614610a17576040517f08c379a0000000000000000000000000000000000000000000000000000000008152600401610a0e9061179e565b60405180910390fd5b60018060008373ffffffffffffffffffffffffffffffffffffffff1673ffffffffffffffffffffffffffffffffffffffff16815260200190815260200160002060000160006101000a81548160ff02191690831515021790555050565b60008054906101000a900473ffffffffffffffffffffffffffffffffffffffff1673ffffffffffffffffffffffffffffffffffffffff163373ffffffffffffffffffffffffffffffffffffffff1614610b02576040517f08c379a0000000000000000000000000000000000000000000000000000000008152600401610af99061179e565b60405180910390fd5b600381604051610b1291906118c6565b908152602001604051809103902060009054906101000a900460ff1615610b6e576040517f08c379a0000000000000000000000000000000000000000000000000000000008152600401610b6590611929565b60405180910390fd5b60046000815480929190610b819061170a565b9190505550604051806080016040528060045481526020018281526020016000815260200160011515815250600260006004548152602001908152602001600020600082015181600001556020820151816001019081610be19190611af5565b506040820151816002015560608201518160030160006101000a81548160ff0219169083151502179055509050506001600382604051610c2191906118c6565b908152602001604051809103902060006101000a81548160ff02191690831515021790555050565b60008054906101000a900473ffffffffffffffffffffffffffffffffffffffff1673ffffffffffffffffffffffffffffffffffffffff163373ffffffffffffffffffffffffffffffffffffffff1614610cd7576040517f08c379a0000000000000000000000000000000000000000000000000000000008152600401610cce9061179e565b60405180910390fd5b600660009054906101000a900460ff1615610d27576040517f08c379a0000000000000000000000000000000000000000000000000000000008152600401610d1e90611c13565b60405180910390fd5b6001600660006101000a81548160ff02191690831515021790555061a8c042610d509190611c33565b600581905550565b6060600660009054906101000a900460ff16610da9576040517f08c379a0000000000000000000000000000000000000000000000000000000008152600401610da09061149f565b60405180910390fd5b6005544211610ded576040517f08c379a0000000000000000000000000000000000000000000000000000000008152600401610de490611cb3565b60405180910390fd5b6000806000600190505b6004548111610e7a576002600082815260200190815260200160002060030160009054906101000a900460ff168015610e455750826002600083815260200190815260200160002060020154115b15610e6757600260008281526020019081526020016000206002015492508091505b8080610e729061170a565b915050610df7565b5060008103610ec2576040518060400160405280600981526020017f4e6f2057696e6e6572000000000000000000000000000000000000000000000081525092505050610f66565b600260008281526020019081526020016000206001018054610ee390611859565b80601f0160208091040260200160405190810160405280929190818152602001828054610f0f90611859565b8015610f5c5780601f10610f3157610100808354040283529160200191610f5c565b820191906000526020600020905b815481529060010190602001808311610f3f57829003601f168201915b5050505050925050505b90565b60055481565b60016020528060005260406000206000915090508060000160009054906101000a900460ff16908060000160019054906101000a900460ff16905082565b600660009054906101000a900460ff1681565b60008054906101000a900473ffffffffffffffffffffffffffffffffffffffff1681565b6000604051905090565b600080fd5b600080fd5b6000819050919050565b61100b81610ff8565b811461101657600080fd5b50565b60008135905061102881611002565b92915050565b60006020828403121561104457611043610fee565b5b600061105284828501611019565b91505092915050565b61106481610ff8565b82525050565b600060208201905061107f600083018461105b565b92915050565b600081519050919050565b600082825260208201905092915050565b60005b838110156110bf5780820151818401526020810190506110a4565b60008484015250505050565b6000601f19601f8301169050919050565b60006110e782611085565b6110f18185611090565b93506111018185602086016110a1565b61110a816110cb565b840191505092915050565b60008115159050919050565b61112a81611115565b82525050565b6000608082019050611145600083018761105b565b818103602083015261115781866110dc565b9050611166604083018561105b565b6111736060830184611121565b95945050505050565b6000606082019050818103600083015261119681866110dc565b90506111a5602083018561105b565b6111b26040830184611121565b949350505050565b600073ffffffffffffffffffffffffffffffffffffffff82169050919050565b60006111e5826111ba565b9050919050565b6111f5816111da565b811461120057600080fd5b50565b600081359050611212816111ec565b92915050565b60006020828403121561122e5761122d610fee565b5b600061123c84828501611203565b91505092915050565b600080fd5b600080fd5b7f4e487b7100000000000000000000000000000000000000000000000000000000600052604160045260246000fd5b611287826110cb565b810181811067ffffffffffffffff821117156112a6576112a561124f565b5b80604052505050565b60006112b9610fe4565b90506112c5828261127e565b919050565b600067ffffffffffffffff8211156112e5576112e461124f565b5b6112ee826110cb565b9050602081019050919050565b82818337600083830152505050565b600061131d611318846112ca565b6112af565b9050828152602081018484840111156113395761133861124a565b5b6113448482856112fb565b509392505050565b600082601f83011261136157611360611245565b5b813561137184826020860161130a565b91505092915050565b6000602082840312156113905761138f610fee565b5b600082013567ffffffffffffffff8111156113ae576113ad610ff3565b5b6113ba8482850161134c565b91505092915050565b600060208201905081810360008301526113dd81846110dc565b905092915050565b60006040820190506113fa6000830185611121565b6114076020830184611121565b9392505050565b60006020820190506114236000830184611121565b92915050565b611432816111da565b82525050565b600060208201905061144d6000830184611429565b92915050565b7f456c656374696f6e20686173206e6f7420737461727465642079657400000000600082015250565b6000611489601c83611090565b915061149482611453565b602082019050919050565b600060208201905081810360008301526114b88161147c565b9050919050565b7f456c656374696f6e2068617320656e6465640000000000000000000000000000600082015250565b60006114f5601283611090565b9150611500826114bf565b602082019050919050565b60006020820190508181036000830152611524816114e8565b9050919050565b7f4e6f742072656769737465726564000000000000000000000000000000000000600082015250565b6000611561600e83611090565b915061156c8261152b565b602082019050919050565b6000602082019050818103600083015261159081611554565b9050919050565b7f416c726561647920766f74656400000000000000000000000000000000000000600082015250565b60006115cd600d83611090565b91506115d882611597565b602082019050919050565b600060208201905081810360008301526115fc816115c0565b9050919050565b7f496e76616c69642063616e646964617465000000000000000000000000000000600082015250565b6000611639601183611090565b915061164482611603565b602082019050919050565b600060208201905081810360008301526116688161162c565b9050919050565b7f43616e646964617465206973206e6f7420616374697665000000000000000000600082015250565b60006116a5601783611090565b91506116b08261166f565b602082019050919050565b600060208201905081810360008301526116d481611698565b9050919050565b7f4e487b7100000000000000000000000000000000000000000000000000000000600052601160045260246000fd5b600061171582610ff8565b91507fffffffffffffffffffffffffffffffffffffffffffffffffffffffffffffffff8203611747576117466116db565b5b600182019050919050565b7f4f6e6c792061646d696e00000000000000000000000000000000000000000000600082015250565b6000611788600a83611090565b915061179382611752565b602082019050919050565b600060208201905081810360008301526117b78161177b565b9050919050565b7f43616e64696461746520616c72656164792072656d6f76656400000000000000600082015250565b60006117f4601983611090565b91506117ff826117be565b602082019050919050565b60006020820190508181036000830152611823816117e7565b9050919050565b7f4e487b7100000000000000000000000000000000000000000000000000000000600052602260045260246000fd5b6000600282049050600182168061187157607f821691505b6020821081036118845761188361182a565b5b50919050565b600081905092915050565b60006118a082611085565b6118aa818561188a565b93506118ba8185602086016110a1565b80840191505092915050565b60006118d28284611895565b915081905092915050565b7f43616e64696461746520616c7265616479206578697374730000000000000000600082015250565b6000611913601883611090565b915061191e826118dd565b602082019050919050565b6000602082019050818103600083015261194281611906565b9050919050565b60008190508160005260206000209050919050565b60006020601f8301049050919050565b600082821b905092915050565b6000600883026119ab7fffffffffffffffffffffffffffffffffffffffffffffffffffffffffffffffff8261196e565b6119b5868361196e565b95508019841693508086168417925050509392505050565b6000819050919050565b60006119f26119ed6119e884610ff8565b6119cd565b610ff8565b9050919050565b6000819050919050565b611a0c836119d7565b611a20611a18826119f9565b84845461197b565b825550505050565b600090565b611a35611a28565b611a40818484611a03565b505050565b5b81811015611a6457611a59600082611a2d565b600181019050611a46565b5050565b601f821115611aa957611a7a81611949565b611a838461195e565b81016020851015611a92578190505b611aa6611a9e8561195e565b830182611a45565b50505b505050565b600082821c905092915050565b6000611acc60001984600802611aae565b1980831691505092915050565b6000611ae58383611abb565b9150826002028217905092915050565b611afe82611085565b67ffffffffffffffff811115611b1757611b1661124f565b5b611b218254611859565b611b2c828285611a68565b600060209050601f831160018114611b5f5760008415611b4d578287015190505b611b578582611ad9565b865550611bbf565b601f198416611b6d86611949565b60005b82811015611b9557848901518255600182019150602085019450602081019050611b70565b86831015611bb25784890151611bae601f891682611abb565b8355505b6001600288020188555050505b505050505050565b7f456c656374696f6e20616c726561647920737461727465640000000000000000600082015250565b6000611bfd601883611090565b9150611c0882611bc7565b602082019050919050565b60006020820190508181036000830152611c2c81611bf0565b9050919050565b6000611c3e82610ff8565b9150611c4983610ff8565b9250828201905080821115611c6157611c606116db565b5b92915050565b7f456c656374696f6e206973207374696c6c206f6e676f696e6700000000000000600082015250565b6000611c9d601983611090565b9150611ca882611c67565b602082019050919050565b60006020820190508181036000830152611ccc81611c90565b905091905056fea26469706673582212203ed8d1cc9ab1492b0993ab592f76d5a0cc2c8e459c8711d91c932288ea58dccb64736f6c63430008140033",
  "linkReferences": {},
  "deployedLinkReferences": {}
}