{
  "_format": "hh-sol-artifact-1",
  "contractName": "Voting",
  "sourceName": "contracts/Voting.sol",
  "abi": [
    {
      "inputs": [],
      "stateMutability": "nonpayable",
      "type": "constructor"
    },
    {
      "inputs": [
        {
          "internalType": "string",
          "name": "_name",
          "type": "string"
        }
      ],
      "name": "addCandidate",
      "outputs": [],
      "stateMutability": "nonpayable",
      "type": "function"
    },
    {
      "inputs": [],
      "name": "admin",
      "outputs": [
        {
          "internalType": "address",
          "name": "",
          "type": "address"
        }
      ],
      "stateMutability": "view",
      "type": "function"
    },
    {
      "inputs": [
        {
          "internalType": "uint256",
          "name": "",
          "type": "uint256"
        }
      ],
      "name": "candidates",
      "outputs": [
        {
          "internalType": "uint256",
          "name": "id",
          "type": "uint256"
        },
        {
          "internalType": "string",
          "name": "name",
          "type": "string"
        },
        {
          "internalType": "uint256",
          "name": "voteCount",
          "type": "uint256"
        },
        {
          "internalType": "bool",
          "name": "active",
          "type": "bool"
        }
      ],
      "stateMutability": "view",
      "type": "function"
    },
    {
      "inputs": [],
      "name": "candidatesCount",
      "outputs": [
        {
          "internalType": "uint256",
          "name": "",
          "type": "uint256"
        }
      ],
      "stateMutability": "view",
      "type": "function"
    },
    {
      "inputs": [],
      "name": "electionActive",
      "outputs": [
        {
          "internalType": "bool",
          "name": "",
          "type": "bool"
        }
      ],
      "stateMutability": "view",
      "type": "function"
    },
    {
      "inputs": [],
      "name": "endElection",
      "outputs": [],
      "stateMutability": "nonpayable",
      "type": "function"
    },
    {
      "inputs": [
        {
          "internalType": "uint256",
          "name": "_id",
          "type": "uint256"
        }
      ],
      "name": "getCandidate",
      "outputs": [
        {
          "internalType": "string",
          "name": "",
          "type": "string"
        },
        {
          "internalType": "uint256",
          "name": "",
          "type": "uint256"
        },
        {
          "internalType": "bool",
          "name": "",
          "type": "bool"
        }
      ],
      "stateMutability": "view",
      "type": "function"
    },
    {
      "inputs": [],
      "name": "getWinner",
      "outputs": [
        {
          "internalType": "string",
          "name": "",
          "type": "string"
        }
      ],
      "stateMutability": "view",
      "type": "function"
    },
    {
      "inputs": [
        {
          "internalType": "address",
          "name": "_voter",
          "type": "address"
        }
      ],
      "name": "registerVoter",
      "outputs": [],
      "stateMutability": "nonpayable",
      "type": "function"
    },
    {
      "inputs": [
        {
          "internalType": "uint256",
          "name": "_id",
          "type": "uint256"
        }
      ],
      "name": "removeCandidate",
      "outputs": [],
      "stateMutability": "nonpayable",
      "type": "function"
    },
    {
      "inputs": [],
      "name": "startElection",
      "outputs": [],
      "stateMutability": "nonpayable",
      "type": "function"
    },
    {
      "inputs": [
        {
          "internalType": "uint256",
          "name": "_candidateId",
          "type": "uint256"
        }
      ],
      "name": "vote",
      "outputs": [],
      "stateMutability": "nonpayable",
      "type": "function"
    },
    {
      "inputs": [
        {
          "internalType": "address",
          "name": "",
          "type": "address"
        }
      ],
      "name": "voters",
      "outputs": [
        {
          "internalType": "bool",
          "name": "registered",
          "type": "bool"
        },
        {
          "internalType": "bool",
          "name": "voted",
          "type": "bool"
        }
      ],
      "stateMutability": "view",
      "type": "function"
    }
  ],
  "bytecode": "0x608060405234801561001057600080fd5b50336000806101000a81548173ffffffffffffffffffffffffffffffffffffffff021916908373ffffffffffffffffffffffffffffffffffffffff160217905550611ae5806100606000396000f3fe608060405234801561001057600080fd5b50600436106100cf5760003560e01c8063462e91ec1161008c5780637ed628bb116100665780637ed628bb146101db5780638e7ea5b2146101f9578063a3ec138d14610217578063f851a44014610248576100cf565b8063462e91ec146101ab57806359f78468146101c757806362d73eb8146101d1576100cf565b80630121b93f146100d457806309e9d7e2146100f05780632d35a8a21461010c5780633477ee2e1461012a57806335b8e8201461015d57806338db6dd31461018f575b600080fd5b6100ee60048036038101906100e99190610f82565b610266565b005b61010a60048036038101906101059190610f82565b610511565b005b610114610760565b6040516101219190610fbe565b60405180910390f35b610144600480360381019061013f9190610f82565b610766565b6040516101549493929190611084565b60405180910390f35b61017760048036038101906101729190610f82565b61082b565b604051610186939291906110d0565b60405180910390f35b6101a960048036038101906101a4919061116c565b610930565b005b6101c560048036038101906101c091906112ce565b610a1b565b005b6101cf610bf0565b005b6101d9610c9a565b005b6101e3610d45565b6040516101f09190611317565b60405180910390f35b610201610d58565b60405161020e9190611332565b60405180910390f35b610231600480360381019061022c919061116c565b610ed6565b60405161023f929190611354565b60405180910390f35b610250610f14565b60405161025d919061138c565b60405180910390f35b600060149054906101000a900460ff166102b5576040517f08c379a00000000000000000000000000000000000000000000000000000000081526004016102ac906113f3565b60405180910390fd5b600160003373ffffffffffffffffffffffffffffffffffffffff1673ffffffffffffffffffffffffffffffffffffffff16815260200190815260200160002060000160009054906101000a900460ff16610344576040517f08c379a000000000000000000000000000000000000000000000000000000000815260040161033b9061145f565b60405180910390fd5b600160003373ffffffffffffffffffffffffffffffffffffffff1673ffffffffffffffffffffffffffffffffffffffff16815260200190815260200160002060000160019054906101000a900460ff16156103d4576040517f08c379a00000000000000000000000000000000000000000000000000000000081526004016103cb906114cb565b60405180910390fd5b6000811180156103e657506004548111155b610425576040517f08c379a000000000000000000000000000000000000000000000000000000000815260040161041c90611537565b60405180910390fd5b6002600082815260200190815260200160002060030160009054906101000a900460ff16610488576040517f08c379a000000000000000000000000000000000000000000000000000000000815260040161047f906115a3565b60405180910390fd5b60018060003373ffffffffffffffffffffffffffffffffffffffff1673ffffffffffffffffffffffffffffffffffffffff16815260200190815260200160002060000160016101000a81548160ff021916908315150217905550600260008281526020019081526020016000206002016000815480929190610509906115f2565b919050555050565b60008054906101000a900473ffffffffffffffffffffffffffffffffffffffff1673ffffffffffffffffffffffffffffffffffffffff163373ffffffffffffffffffffffffffffffffffffffff161461059f576040517f08c379a000000000000000000000000000000000000000000000000000000000815260040161059690611686565b60405180910390fd5b6000811180156105b157506004548111155b6105f0576040517f08c379a00000000000000000000000000000000000000000000000000000000081526004016105e790611537565b60405180910390fd5b6002600082815260200190815260200160002060030160009054906101000a900460ff16610653576040517f08c379a000000000000000000000000000000000000000000000000000000000815260040161064a906116f2565b60405180910390fd5b60006002600083815260200190815260200160002060030160006101000a81548160ff02191690831515021790555060006002600083815260200190815260200160002060010180546106a590611741565b80601f01602080910402602001604051908101604052809291908181526020018280546106d190611741565b801561071e5780601f106106f35761010080835404028352916020019161071e565b820191906000526020600020905b81548152906001019060200180831161070157829003601f168201915b50505050509050600060038260405161073791906117ae565b908152602001604051809103902060006101000a81548160ff0219169083151502179055505050565b60045481565b600260205280600052604060002060009150905080600001549080600101805461078f90611741565b80601f01602080910402602001604051908101604052809291908181526020018280546107bb90611741565b80156108085780601f106107dd57610100808354040283529160200191610808565b820191906000526020600020905b8154815290600101906020018083116107eb57829003601f168201915b5050505050908060020154908060030160009054906101000a900460ff16905084565b60606000806000600260008681526020019081526020016000206040518060800160405290816000820154815260200160018201805461086a90611741565b80601f016020809104026020016040519081016040528092919081815260200182805461089690611741565b80156108e35780601f106108b8576101008083540402835291602001916108e3565b820191906000526020600020905b8154815290600101906020018083116108c657829003601f168201915b50505050508152602001600282015481526020016003820160009054906101000a900460ff1615151515815250509050806020015181604001518260600151935093509350509193909250565b60008054906101000a900473ffffffffffffffffffffffffffffffffffffffff1673ffffffffffffffffffffffffffffffffffffffff163373ffffffffffffffffffffffffffffffffffffffff16146109be576040517f08c379a00000000000000000000000000000000000000000000000000000000081526004016109b590611686565b60405180910390fd5b60018060008373ffffffffffffffffffffffffffffffffffffffff1673ffffffffffffffffffffffffffffffffffffffff16815260200190815260200160002060000160006101000a81548160ff02191690831515021790555050565b60008054906101000a900473ffffffffffffffffffffffffffffffffffffffff1673ffffffffffffffffffffffffffffffffffffffff163373ffffffffffffffffffffffffffffffffffffffff1614610aa9576040517f08c379a0000000000000000000000000000000000000000000000000000000008152600401610aa090611686565b60405180910390fd5b600381604051610ab991906117ae565b908152602001604051809103902060009054906101000a900460ff1615610b15576040517f08c379a0000000000000000000000000000000000000000000000000000000008152600401610b0c90611811565b60405180910390fd5b60046000815480929190610b28906115f2565b9190505550604051806080016040528060045481526020018281526020016000815260200160011515815250600260006004548152602001908152602001600020600082015181600001556020820151816001019081610b8891906119dd565b506040820151816002015560608201518160030160006101000a81548160ff0219169083151502179055509050506001600382604051610bc891906117ae565b908152602001604051809103902060006101000a81548160ff02191690831515021790555050565b60008054906101000a900473ffffffffffffffffffffffffffffffffffffffff1673ffffffffffffffffffffffffffffffffffffffff163373ffffffffffffffffffffffffffffffffffffffff1614610c7e576040517f08c379a0000000000000000000000000000000000000000000000000000000008152600401610c7590611686565b60405180910390fd5b60008060146101000a81548160ff021916908315150217905550565b60008054906101000a900473ffffffffffffffffffffffffffffffffffffffff1673ffffffffffffffffffffffffffffffffffffffff163373ffffffffffffffffffffffffffffffffffffffff1614610d28576040517f08c379a0000000000000000000000000000000000000000000000000000000008152600401610d1f90611686565b60405180910390fd5b6001600060146101000a81548160ff021916908315150217905550565b600060149054906101000a900460ff1681565b60606000806000600190505b6004548111610de7576002600082815260200190815260200160002060030160009054906101000a900460ff168015610db25750826002600083815260200190815260200160002060020154115b15610dd457600260008281526020019081526020016000206002015492508091505b8080610ddf906115f2565b915050610d64565b5060008103610e2f576040518060400160405280600981526020017f4e6f2057696e6e6572000000000000000000000000000000000000000000000081525092505050610ed3565b600260008281526020019081526020016000206001018054610e5090611741565b80601f0160208091040260200160405190810160405280929190818152602001828054610e7c90611741565b8015610ec95780601f10610e9e57610100808354040283529160200191610ec9565b820191906000526020600020905b815481529060010190602001808311610eac57829003601f168201915b5050505050925050505b90565b60016020528060005260406000206000915090508060000160009054906101000a900460ff16908060000160019054906101000a900460ff16905082565b60008054906101000a900473ffffffffffffffffffffffffffffffffffffffff1681565b6000604051905090565b600080fd5b600080fd5b6000819050919050565b610f5f81610f4c565b8114610f6a57600080fd5b50565b600081359050610f7c81610f56565b92915050565b600060208284031215610f9857610f97610f42565b5b6000610fa684828501610f6d565b91505092915050565b610fb881610f4c565b82525050565b6000602082019050610fd36000830184610faf565b92915050565b600081519050919050565b600082825260208201905092915050565b60005b83811015611013578082015181840152602081019050610ff8565b60008484015250505050565b6000601f19601f8301169050919050565b600061103b82610fd9565b6110458185610fe4565b9350611055818560208601610ff5565b61105e8161101f565b840191505092915050565b60008115159050919050565b61107e81611069565b82525050565b60006080820190506110996000830187610faf565b81810360208301526110ab8186611030565b90506110ba6040830185610faf565b6110c76060830184611075565b95945050505050565b600060608201905081810360008301526110ea8186611030565b90506110f96020830185610faf565b6111066040830184611075565b949350505050565b600073ffffffffffffffffffffffffffffffffffffffff82169050919050565b60006111398261110e565b9050919050565b6111498161112e565b811461115457600080fd5b50565b60008135905061116681611140565b92915050565b60006020828403121561118257611181610f42565b5b600061119084828501611157565b91505092915050565b600080fd5b600080fd5b7f4e487b7100000000000000000000000000000000000000000000000000000000600052604160045260246000fd5b6111db8261101f565b810181811067ffffffffffffffff821117156111fa576111f96111a3565b5b80604052505050565b600061120d610f38565b905061121982826111d2565b919050565b600067ffffffffffffffff821115611239576112386111a3565b5b6112428261101f565b9050602081019050919050565b82818337600083830152505050565b600061127161126c8461121e565b611203565b90508281526020810184848401111561128d5761128c61119e565b5b61129884828561124f565b509392505050565b600082601f8301126112b5576112b4611199565b5b81356112c584826020860161125e565b91505092915050565b6000602082840312156112e4576112e3610f42565b5b600082013567ffffffffffffffff81111561130257611301610f47565b5b61130e848285016112a0565b91505092915050565b600060208201905061132c6000830184611075565b92915050565b6000602082019050818103600083015261134c8184611030565b905092915050565b60006040820190506113696000830185611075565b6113766020830184611075565b9392505050565b6113868161112e565b82525050565b60006020820190506113a1600083018461137d565b92915050565b7f456c656374696f6e206e6f742061637469766500000000000000000000000000600082015250565b60006113dd601383610fe4565b91506113e8826113a7565b602082019050919050565b6000602082019050818103600083015261140c816113d0565b9050919050565b7f4e6f742072656769737465726564000000000000000000000000000000000000600082015250565b6000611449600e83610fe4565b915061145482611413565b602082019050919050565b600060208201905081810360008301526114788161143c565b9050919050565b7f416c726561647920766f74656400000000000000000000000000000000000000600082015250565b60006114b5600d83610fe4565b91506114c08261147f565b602082019050919050565b600060208201905081810360008301526114e4816114a8565b9050919050565b7f496e76616c69642063616e646964617465000000000000000000000000000000600082015250565b6000611521601183610fe4565b915061152c826114eb565b602082019050919050565b6000602082019050818103600083015261155081611514565b9050919050565b7f43616e646964617465206973206e6f7420616374697665000000000000000000600082015250565b600061158d601783610fe4565b915061159882611557565b602082019050919050565b600060208201905081810360008301526115bc81611580565b9050919050565b7f4e487b7100000000000000000000000000000000000000000000000000000000600052601160045260246000fd5b60006115fd82610f4c565b91507fffffffffffffffffffffffffffffffffffffffffffffffffffffffffffffffff820361162f5761162e6115c3565b5b600182019050919050565b7f4f6e6c792061646d696e00000000000000000000000000000000000000000000600082015250565b6000611670600a83610fe4565b915061167b8261163a565b602082019050919050565b6000602082019050818103600083015261169f81611663565b9050919050565b7f43616e64696461746520616c72656164792072656d6f76656400000000000000600082015250565b60006116dc601983610fe4565b91506116e7826116a6565b602082019050919050565b6000602082019050818103600083015261170b816116cf565b9050919050565b7f4e487b7100000000000000000000000000000000000000000000000000000000600052602260045260246000fd5b6000600282049050600182168061175957607f821691505b60208210810361176c5761176b611712565b5b50919050565b600081905092915050565b600061178882610fd9565b6117928185611772565b93506117a2818560208601610ff5565b80840191505092915050565b60006117ba828461177d565b915081905092915050565b7f43616e64696461746520616c7265616479206578697374730000000000000000600082015250565b60006117fb601883610fe4565b9150611806826117c5565b602082019050919050565b6000602082019050818103600083015261182a816117ee565b9050919050565b60008190508160005260206000209050919050565b60006020601f8301049050919050565b600082821b905092915050565b6000600883026118937fffffffffffffffffffffffffffffffffffffffffffffffffffffffffffffffff82611856565b61189d8683611856565b95508019841693508086168417925050509392505050565b6000819050919050565b60006118da6118d56118d084610f4c565b6118b5565b610f4c565b9050919050565b6000819050919050565b6118f4836118bf565b611908611900826118e1565b848454611863565b825550505050565b600090565b61191d611910565b6119288184846118eb565b505050565b5b8181101561194c57611941600082611915565b60018101905061192e565b5050565b601f8211156119915761196281611831565b61196b84611846565b8101602085101561197a578190505b61198e61198685611846565b83018261192d565b50505b505050565b600082821c905092915050565b60006119b460001984600802611996565b1980831691505092915050565b60006119cd83836119a3565b9150826002028217905092915050565b6119e682610fd9565b67ffffffffffffffff8111156119ff576119fe6111a3565b5b611a098254611741565b611a14828285611950565b600060209050601f831160018114611a475760008415611a35578287015190505b611a3f85826119c1565b865550611aa7565b601f198416611a5586611831565b60005b82811015611a7d57848901518255600182019150602085019450602081019050611a58565b86831015611a9a5784890151611a96601f8916826119a3565b8355505b6001600288020188555050505b50505050505056fea2646970667358221220d9790b33cfacf4c8a32f86ffb371e4f73fae1b42a5c28af6407f16b487a6784264736f6c63430008140033",
  "linkReferences": {},
  "deployedLinkReferences": {}
}