{
  "_format": "hh-sol-artifact-1",
  "contractName": "Voting",
  "sourceName": "contracts/Voting.sol",
  "abi": [
    {
      "inputs": [],
      "stateMutability": "nonpayable",
      "type": "constructor"
    },
    {
      "inputs": [
        {
          "internalType": "string",
          "name": "_name",
          "type": "string"
        }
      ],
      "name": "addCandidate",
      "outputs": [],
      "stateMutability": "nonpayable",
      "type": "function"
    },
    {
      "inputs": [],
      "name": "admin",
      "outputs": [
        {
          "internalType": "address",
          "name": "",
          "type": "address"
        }
      ],
      "stateMutability": "view",
      "type": "function"
    },
    {
      "inputs": [
        {
          "internalType": "uint256",
          "name": "",
          "type": "uint256"
        }
      ],
      "name": "candidates",
      "outputs": [
        {
          "internalType": "uint256",
          "name": "id",
          "type": "uint256"
        },
        {
          "internalType": "string",
          "name": "name",
          "type": "string"
        },
        {
          "internalType": "uint256",
          "name": "voteCount",
          "type": "uint256"
        },
        {
          "internalType": "bool",
          "name": "active",
          "type": "bool"
        }
      ],
      "stateMutability": "view",
      "type": "function"
    },
    {
      "inputs": [],
      "name": "candidatesCount",
      "outputs": [
        {
          "internalType": "uint256",
          "name": "",
          "type": "uint256"
        }
      ],
      "stateMutability": "view",
      "type": "function"
    },
    {
      "inputs": [
        {
          "internalType": "uint256",
          "name": "_id",
          "type": "uint256"
        }
      ],
      "name": "getCandidate",
      "outputs": [
        {
          "internalType": "string",
          "name": "",
          "type": "string"
        },
        {
          "internalType": "uint256",
          "name": "",
          "type": "uint256"
        },
        {
          "internalType": "bool",
          "name": "",
          "type": "bool"
        }
      ],
      "stateMutability": "view",
      "type": "function"
    },
    {
      "inputs": [],
      "name": "getWinner",
      "outputs": [
        {
          "internalType": "string",
          "name": "",
          "type": "string"
        }
      ],
      "stateMutability": "view",
      "type": "function"
    },
    {
      "inputs": [
        {
          "internalType": "address",
          "name": "_voter",
          "type": "address"
        }
      ],
      "name": "registerVoter",
      "outputs": [],
      "stateMutability": "nonpayable",
      "type": "function"
    },
    {
      "inputs": [
        {
          "internalType": "uint256",
          "name": "_id",
          "type": "uint256"
        }
      ],
      "name": "removeCandidate",
      "outputs": [],
      "stateMutability": "nonpayable",
      "type": "function"
    },
    {
      "inputs": [
        {
          "internalType": "uint256",
          "name": "_candidateId",
          "type": "uint256"
        }
      ],
      "name": "vote",
      "outputs": [],
      "stateMutability": "nonpayable",
      "type": "function"
    },
    {
      "inputs": [
        {
          "internalType": "address",
          "name": "",
          "type": "address"
        }
      ],
      "name": "voters",
      "outputs": [
        {
          "internalType": "bool",
          "name": "registered",
          "type": "bool"
        },
        {
          "internalType": "bool",
          "name": "voted",
          "type": "bool"
        }
      ],
      "stateMutability": "view",
      "type": "function"
    }
  ],
  "bytecode": "0x608060405234801561001057600080fd5b50336000806101000a81548173ffffffffffffffffffffffffffffffffffffffff021916908373ffffffffffffffffffffffffffffffffffffffff160217905550611844806100606000396000f3fe608060405234801561001057600080fd5b506004361061009e5760003560e01c806338db6dd31161006657806338db6dd31461015e578063462e91ec1461017a5780638e7ea5b214610196578063a3ec138d146101b4578063f851a440146101e55761009e565b80630121b93f146100a357806309e9d7e2146100bf5780632d35a8a2146100db5780633477ee2e146100f957806335b8e8201461012c575b600080fd5b6100bd60048036038101906100b89190610d68565b610203565b005b6100d960048036038101906100d49190610d68565b61045f565b005b6100e36106ae565b6040516100f09190610da4565b60405180910390f35b610113600480360381019061010e9190610d68565b6106b4565b6040516101239493929190610e6a565b60405180910390f35b61014660048036038101906101419190610d68565b610779565b60405161015593929190610eb6565b60405180910390f35b61017860048036038101906101739190610f52565b61087e565b005b610194600480360381019061018f91906110b4565b610969565b005b61019e610b3e565b6040516101ab91906110fd565b60405180910390f35b6101ce60048036038101906101c99190610f52565b610cbc565b6040516101dc92919061111f565b60405180910390f35b6101ed610cfa565b6040516101fa9190611157565b60405180910390f35b600160003373ffffffffffffffffffffffffffffffffffffffff1673ffffffffffffffffffffffffffffffffffffffff16815260200190815260200160002060000160009054906101000a900460ff16610292576040517f08c379a0000000000000000000000000000000000000000000000000000000008152600401610289906111be565b60405180910390fd5b600160003373ffffffffffffffffffffffffffffffffffffffff1673ffffffffffffffffffffffffffffffffffffffff16815260200190815260200160002060000160019054906101000a900460ff1615610322576040517f08c379a00000000000000000000000000000000000000000000000000000000081526004016103199061122a565b60405180910390fd5b60008111801561033457506004548111155b610373576040517f08c379a000000000000000000000000000000000000000000000000000000000815260040161036a90611296565b60405180910390fd5b6002600082815260200190815260200160002060030160009054906101000a900460ff166103d6576040517f08c379a00000000000000000000000000000000000000000000000000000000081526004016103cd90611302565b60405180910390fd5b60018060003373ffffffffffffffffffffffffffffffffffffffff1673ffffffffffffffffffffffffffffffffffffffff16815260200190815260200160002060000160016101000a81548160ff02191690831515021790555060026000828152602001908152602001600020600201600081548092919061045790611351565b919050555050565b60008054906101000a900473ffffffffffffffffffffffffffffffffffffffff1673ffffffffffffffffffffffffffffffffffffffff163373ffffffffffffffffffffffffffffffffffffffff16146104ed576040517f08c379a00000000000000000000000000000000000000000000000000000000081526004016104e4906113e5565b60405180910390fd5b6000811180156104ff57506004548111155b61053e576040517f08c379a000000000000000000000000000000000000000000000000000000000815260040161053590611296565b60405180910390fd5b6002600082815260200190815260200160002060030160009054906101000a900460ff166105a1576040517f08c379a000000000000000000000000000000000000000000000000000000000815260040161059890611451565b60405180910390fd5b60006002600083815260200190815260200160002060030160006101000a81548160ff02191690831515021790555060006002600083815260200190815260200160002060010180546105f3906114a0565b80601f016020809104026020016040519081016040528092919081815260200182805461061f906114a0565b801561066c5780601f106106415761010080835404028352916020019161066c565b820191906000526020600020905b81548152906001019060200180831161064f57829003601f168201915b505050505090506000600382604051610685919061150d565b908152602001604051809103902060006101000a81548160ff0219169083151502179055505050565b60045481565b60026020528060005260406000206000915090508060000154908060010180546106dd906114a0565b80601f0160208091040260200160405190810160405280929190818152602001828054610709906114a0565b80156107565780601f1061072b57610100808354040283529160200191610756565b820191906000526020600020905b81548152906001019060200180831161073957829003601f168201915b5050505050908060020154908060030160009054906101000a900460ff16905084565b6060600080600060026000868152602001908152602001600020604051806080016040529081600082015481526020016001820180546107b8906114a0565b80601f01602080910402602001604051908101604052809291908181526020018280546107e4906114a0565b80156108315780601f1061080657610100808354040283529160200191610831565b820191906000526020600020905b81548152906001019060200180831161081457829003601f168201915b50505050508152602001600282015481526020016003820160009054906101000a900460ff1615151515815250509050806020015181604001518260600151935093509350509193909250565b60008054906101000a900473ffffffffffffffffffffffffffffffffffffffff1673ffffffffffffffffffffffffffffffffffffffff163373ffffffffffffffffffffffffffffffffffffffff161461090c576040517f08c379a0000000000000000000000000000000000000000000000000000000008152600401610903906113e5565b60405180910390fd5b60018060008373ffffffffffffffffffffffffffffffffffffffff1673ffffffffffffffffffffffffffffffffffffffff16815260200190815260200160002060000160006101000a81548160ff02191690831515021790555050565b60008054906101000a900473ffffffffffffffffffffffffffffffffffffffff1673ffffffffffffffffffffffffffffffffffffffff163373ffffffffffffffffffffffffffffffffffffffff16146109f7576040517f08c379a00000000000000000000000000000000000000000000000000000000081526004016109ee906113e5565b60405180910390fd5b600381604051610a07919061150d565b908152602001604051809103902060009054906101000a900460ff1615610a63576040517f08c379a0000000000000000000000000000000000000000000000000000000008152600401610a5a90611570565b60405180910390fd5b60046000815480929190610a7690611351565b9190505550604051806080016040528060045481526020018281526020016000815260200160011515815250600260006004548152602001908152602001600020600082015181600001556020820151816001019081610ad6919061173c565b506040820151816002015560608201518160030160006101000a81548160ff0219169083151502179055509050506001600382604051610b16919061150d565b908152602001604051809103902060006101000a81548160ff02191690831515021790555050565b60606000806000600190505b6004548111610bcd576002600082815260200190815260200160002060030160009054906101000a900460ff168015610b985750826002600083815260200190815260200160002060020154115b15610bba57600260008281526020019081526020016000206002015492508091505b8080610bc590611351565b915050610b4a565b5060008103610c15576040518060400160405280600981526020017f4e6f2057696e6e6572000000000000000000000000000000000000000000000081525092505050610cb9565b600260008281526020019081526020016000206001018054610c36906114a0565b80601f0160208091040260200160405190810160405280929190818152602001828054610c62906114a0565b8015610caf5780601f10610c8457610100808354040283529160200191610caf565b820191906000526020600020905b815481529060010190602001808311610c9257829003601f168201915b5050505050925050505b90565b60016020528060005260406000206000915090508060000160009054906101000a900460ff16908060000160019054906101000a900460ff16905082565b60008054906101000a900473ffffffffffffffffffffffffffffffffffffffff1681565b6000604051905090565b600080fd5b600080fd5b6000819050919050565b610d4581610d32565b8114610d5057600080fd5b50565b600081359050610d6281610d3c565b92915050565b600060208284031215610d7e57610d7d610d28565b5b6000610d8c84828501610d53565b91505092915050565b610d9e81610d32565b82525050565b6000602082019050610db96000830184610d95565b92915050565b600081519050919050565b600082825260208201905092915050565b60005b83811015610df9578082015181840152602081019050610dde565b60008484015250505050565b6000601f19601f8301169050919050565b6000610e2182610dbf565b610e2b8185610dca565b9350610e3b818560208601610ddb565b610e4481610e05565b840191505092915050565b60008115159050919050565b610e6481610e4f565b82525050565b6000608082019050610e7f6000830187610d95565b8181036020830152610e918186610e16565b9050610ea06040830185610d95565b610ead6060830184610e5b565b95945050505050565b60006060820190508181036000830152610ed08186610e16565b9050610edf6020830185610d95565b610eec6040830184610e5b565b949350505050565b600073ffffffffffffffffffffffffffffffffffffffff82169050919050565b6000610f1f82610ef4565b9050919050565b610f2f81610f14565b8114610f3a57600080fd5b50565b600081359050610f4c81610f26565b92915050565b600060208284031215610f6857610f67610d28565b5b6000610f7684828501610f3d565b91505092915050565b600080fd5b600080fd5b7f4e487b7100000000000000000000000000000000000000000000000000000000600052604160045260246000fd5b610fc182610e05565b810181811067ffffffffffffffff82111715610fe057610fdf610f89565b5b80604052505050565b6000610ff3610d1e565b9050610fff8282610fb8565b919050565b600067ffffffffffffffff82111561101f5761101e610f89565b5b61102882610e05565b9050602081019050919050565b82818337600083830152505050565b600061105761105284611004565b610fe9565b90508281526020810184848401111561107357611072610f84565b5b61107e848285611035565b509392505050565b600082601f83011261109b5761109a610f7f565b5b81356110ab848260208601611044565b91505092915050565b6000602082840312156110ca576110c9610d28565b5b600082013567ffffffffffffffff8111156110e8576110e7610d2d565b5b6110f484828501611086565b91505092915050565b600060208201905081810360008301526111178184610e16565b905092915050565b60006040820190506111346000830185610e5b565b6111416020830184610e5b565b9392505050565b61115181610f14565b82525050565b600060208201905061116c6000830184611148565b92915050565b7f4e6f742072656769737465726564000000000000000000000000000000000000600082015250565b60006111a8600e83610dca565b91506111b382611172565b602082019050919050565b600060208201905081810360008301526111d78161119b565b9050919050565b7f416c726561647920766f74656400000000000000000000000000000000000000600082015250565b6000611214600d83610dca565b915061121f826111de565b602082019050919050565b6000602082019050818103600083015261124381611207565b9050919050565b7f496e76616c69642063616e646964617465000000000000000000000000000000600082015250565b6000611280601183610dca565b915061128b8261124a565b602082019050919050565b600060208201905081810360008301526112af81611273565b9050919050565b7f43616e646964617465206973206e6f7420616374697665000000000000000000600082015250565b60006112ec601783610dca565b91506112f7826112b6565b602082019050919050565b6000602082019050818103600083015261131b816112df565b9050919050565b7f4e487b7100000000000000000000000000000000000000000000000000000000600052601160045260246000fd5b600061135c82610d32565b91507fffffffffffffffffffffffffffffffffffffffffffffffffffffffffffffffff820361138e5761138d611322565b5b600182019050919050565b7f4f6e6c792061646d696e00000000000000000000000000000000000000000000600082015250565b60006113cf600a83610dca565b91506113da82611399565b602082019050919050565b600060208201905081810360008301526113fe816113c2565b9050919050565b7f43616e64696461746520616c72656164792072656d6f76656400000000000000600082015250565b600061143b601983610dca565b915061144682611405565b602082019050919050565b6000602082019050818103600083015261146a8161142e565b9050919050565b7f4e487b7100000000000000000000000000000000000000000000000000000000600052602260045260246000fd5b600060028204905060018216806114b857607f821691505b6020821081036114cb576114ca611471565b5b50919050565b600081905092915050565b60006114e782610dbf565b6114f181856114d1565b9350611501818560208601610ddb565b80840191505092915050565b600061151982846114dc565b915081905092915050565b7f43616e64696461746520616c7265616479206578697374730000000000000000600082015250565b600061155a601883610dca565b915061156582611524565b602082019050919050565b600060208201905081810360008301526115898161154d565b9050919050565b60008190508160005260206000209050919050565b60006020601f8301049050919050565b600082821b905092915050565b6000600883026115f27fffffffffffffffffffffffffffffffffffffffffffffffffffffffffffffffff826115b5565b6115fc86836115b5565b95508019841693508086168417925050509392505050565b6000819050919050565b600061163961163461162f84610d32565b611614565b610d32565b9050919050565b6000819050919050565b6116538361161e565b61166761165f82611640565b8484546115c2565b825550505050565b600090565b61167c61166f565b61168781848461164a565b505050565b5b818110156116ab576116a0600082611674565b60018101905061168d565b5050565b601f8211156116f0576116c181611590565b6116ca846115a5565b810160208510156116d9578190505b6116ed6116e5856115a5565b83018261168c565b50505b505050565b600082821c905092915050565b6000611713600019846008026116f5565b1980831691505092915050565b600061172c8383611702565b9150826002028217905092915050565b61174582610dbf565b67ffffffffffffffff81111561175e5761175d610f89565b5b61176882546114a0565b6117738282856116af565b600060209050601f8311600181146117a65760008415611794578287015190505b61179e8582611720565b865550611806565b601f1984166117b486611590565b60005b828110156117dc578489015182556001820191506020850194506020810190506117b7565b868310156117f957848901516117f5601f891682611702565b8355505b6001600288020188555050505b50505050505056fea26469706673582212209bdb8e18ba214e3510f31bd2e9b90d93fd81bc85abcb2e40fdcde007c1c2d29664736f6c63430008140033",
  "linkReferences": {},
  "deployedLinkReferences": {}
}